{
    "_format": "hh-sol-artifact-1",
    "contractName": "Lugia",
    "sourceName": "contracts/Lugia.sol",
    "abi": [
        {
            "inputs": [],
            "stateMutability": "nonpayable",
            "type": "constructor"
        },
        {
            "inputs": [],
            "name": "attack",
            "outputs": [],
            "stateMutability": "nonpayable",
            "type": "function"
        },
        {
            "inputs": [],
            "name": "getCurrentCharizardHp",
            "outputs": [
                {
                    "internalType": "uint256",
                    "name": "",
                    "type": "uint256"
                }
            ],
            "stateMutability": "view",
            "type": "function"
        },
        {
            "inputs": [],
            "name": "getCurrentHp",
            "outputs": [
                {
                    "internalType": "uint256",
                    "name": "",
                    "type": "uint256"
                }
            ],
            "stateMutability": "view",
            "type": "function"
        },
        {
            "inputs": [],
            "name": "potion",
            "outputs": [],
            "stateMutability": "nonpayable",
            "type": "function"
        }
    ],
    "bytecode": "0x608060405261c35060015561c3506002556101f46003556102bc60045534801561002857600080fd5b506100546040518060600160405280602681526020016109156026913961005960201b6102471760201c565b6101dc565b6100f58160405160240161006d919061015a565b6040516020818303038152906040527f41304fac000000000000000000000000000000000000000000000000000000007bffffffffffffffffffffffffffffffffffffffffffffffffffffffff19166020820180517bffffffffffffffffffffffffffffffffffffffffffffffffffffffff83818316178352505050506100f860201b60201c565b50565b60008151905060006a636f6e736f6c652e6c6f679050602083016000808483855afa5050505050565b600061012c8261017c565b6101368185610187565b9350610146818560208601610198565b61014f816101cb565b840191505092915050565b600060208201905081810360008301526101748184610121565b905092915050565b600081519050919050565b600082825260208201905092915050565b60005b838110156101b657808201518184015260208101905061019b565b838111156101c5576000848401525b50505050565b6000601f19601f8301169050919050565b61072a806101eb6000396000f3fe608060405234801561001057600080fd5b506004361061004c5760003560e01c8063687360b7146100515780639309d42e1461006f5780639e5faafc14610079578063a8a5a6e914610083575b600080fd5b6100596100a1565b604051610066919061051a565b60405180910390f35b6100776100df565b005b61008161013b565b005b61008b6101ec565b604051610098919061051a565b60405180910390f35b6000806000546001546100b491906105a7565b90506100d86040518060600160405280602481526020016106b060249139826102e0565b8091505090565b6103e8600260008282546100f39190610551565b925050819055506101396040518060400160405280601181526020017f25732075736564206120706f74696f6e210000000000000000000000000000008152503361037c565b565b60035460008082825461014e9190610551565b925050819055506003546001600082825461016991906105a7565b92505081905550600454600560008282546101849190610551565b925050819055506004546002600082825461019f91906105a7565b925050819055506101c86040518060600160405280602181526020016106d4602191393361037c565b6101ea60405180606001604052806025815260200161068b602591393361037c565b565b6000806005546002546101ff91906105a7565b90506102406040518060400160405280601d81526020017f43686172697a617264206861732025642068702072656d61696e696e67000000815250826102e0565b8091505090565b6102dd8160405160240161025b9190610498565b6040516020818303038152906040527f41304fac000000000000000000000000000000000000000000000000000000007bffffffffffffffffffffffffffffffffffffffffffffffffffffffff19166020820180517bffffffffffffffffffffffffffffffffffffffffffffffffffffffff8381831617835250505050610418565b50565b61037882826040516024016102f69291906104ea565b6040516020818303038152906040527f9710a9d0000000000000000000000000000000000000000000000000000000007bffffffffffffffffffffffffffffffffffffffffffffffffffffffff19166020820180517bffffffffffffffffffffffffffffffffffffffffffffffffffffffff8381831617835250505050610418565b5050565b61041482826040516024016103929291906104ba565b6040516020818303038152906040527f319af333000000000000000000000000000000000000000000000000000000007bffffffffffffffffffffffffffffffffffffffffffffffffffffffff19166020820180517bffffffffffffffffffffffffffffffffffffffffffffffffffffffff8381831617835250505050610418565b5050565b60008151905060006a636f6e736f6c652e6c6f679050602083016000808483855afa5050505050565b61044a816105db565b82525050565b600061045b82610535565b6104658185610540565b9350610475818560208601610617565b61047e81610679565b840191505092915050565b6104928161060d565b82525050565b600060208201905081810360008301526104b28184610450565b905092915050565b600060408201905081810360008301526104d48185610450565b90506104e36020830184610441565b9392505050565b600060408201905081810360008301526105048185610450565b90506105136020830184610489565b9392505050565b600060208201905061052f6000830184610489565b92915050565b600081519050919050565b600082825260208201905092915050565b600061055c8261060d565b91506105678361060d565b9250827fffffffffffffffffffffffffffffffffffffffffffffffffffffffffffffffff0382111561059c5761059b61064a565b5b828201905092915050565b60006105b28261060d565b91506105bd8361060d565b9250828210156105d0576105cf61064a565b5b828203905092915050565b60006105e6826105ed565b9050919050565b600073ffffffffffffffffffffffffffffffffffffffff82169050919050565b6000819050919050565b60005b8381101561063557808201518184015260208101905061061a565b83811115610644576000848401525b50505050565b7f4e487b7100000000000000000000000000000000000000000000000000000000600052601160045260246000fd5b6000601f19601f830116905091905056fe2573207761732061747461636b6564206261636b20627920736861646f77204c756769612154686520536861646f77204c75676961206861732025642068702072656d61696e696e672573206861732061747461636b65642074686520736861646f77204c7567696121a2646970667358221220ffb995360d90c7a863d91aa3ed37db4345ecb67c3eee18b1b0af4ba0de27649a64736f6c634300080400337468697320676f6e6e6120626520746865206c7567696120736d61727420636f6e7472616374",
    "linkReferences": {},
    "deployedLinkReferences": {}
}