{
  "_format": "hh-sol-artifact-1",
  "contractName": "Lugia",
  "sourceName": "contracts/Lugia.sol",
  "abi": [
    {
      "inputs": [],
      "stateMutability": "nonpayable",
      "type": "constructor"
    },
    {
      "anonymous": false,
      "inputs": [
        {
          "indexed": true,
          "internalType": "address",
          "name": "from",
          "type": "address"
        },
        {
          "indexed": false,
          "internalType": "uint256",
          "name": "timestamp",
          "type": "uint256"
        },
        {
          "indexed": false,
          "internalType": "string",
          "name": "message",
          "type": "string"
        },
        {
          "indexed": false,
          "internalType": "uint256",
          "name": "lugiahp",
          "type": "uint256"
        },
        {
          "indexed": false,
          "internalType": "uint256",
          "name": "zardhp",
          "type": "uint256"
        }
      ],
      "name": "NewAction",
      "type": "event"
    },
    {
      "inputs": [
        {
          "internalType": "string",
          "name": "_message",
          "type": "string"
        }
      ],
      "name": "attack",
      "outputs": [],
      "stateMutability": "nonpayable",
      "type": "function"
    },
    {
      "inputs": [],
      "name": "getAllActions",
      "outputs": [
        {
          "components": [
            {
              "internalType": "address",
              "name": "trainer",
              "type": "address"
            },
            {
              "internalType": "string",
              "name": "message",
              "type": "string"
            },
            {
              "internalType": "uint256",
              "name": "timestamp",
              "type": "uint256"
            },
            {
              "internalType": "uint256",
              "name": "lugiahp",
              "type": "uint256"
            },
            {
              "internalType": "uint256",
              "name": "zardhp",
              "type": "uint256"
            }
          ],
          "internalType": "struct Lugia.Action[]",
          "name": "",
          "type": "tuple[]"
        }
      ],
      "stateMutability": "view",
      "type": "function"
    },
    {
      "inputs": [],
      "name": "getCurrentCharizardHp",
      "outputs": [
        {
          "internalType": "uint256",
          "name": "",
          "type": "uint256"
        }
      ],
      "stateMutability": "view",
      "type": "function"
    },
    {
      "inputs": [],
      "name": "getCurrentHp",
      "outputs": [
        {
          "internalType": "uint256",
          "name": "",
          "type": "uint256"
        }
      ],
      "stateMutability": "view",
      "type": "function"
    },
    {
      "inputs": [
        {
          "internalType": "string",
          "name": "_message",
          "type": "string"
        }
      ],
      "name": "potion",
      "outputs": [],
      "stateMutability": "nonpayable",
      "type": "function"
    }
  ],
  "bytecode": "0x608060405261c35060015561c3506002556101f46003556102bc6004553480156200002957600080fd5b5062000059604051806060016040528060268152602001620011f1602691396200005f60201b6200068b1760201c565b620001f3565b620000ff816040516024016200007691906200016c565b6040516020818303038152906040527f41304fac000000000000000000000000000000000000000000000000000000007bffffffffffffffffffffffffffffffffffffffffffffffffffffffff19166020820180517bffffffffffffffffffffffffffffffffffffffffffffffffffffffff83818316178352505050506200010260201b60201c565b50565b60008151905060006a636f6e736f6c652e6c6f679050602083016000808483855afa5050505050565b6000620001388262000190565b6200014481856200019b565b935062000156818560208601620001ac565b6200016181620001e2565b840191505092915050565b600060208201905081810360008301526200018881846200012b565b905092915050565b600081519050919050565b600082825260208201905092915050565b60005b83811015620001cc578082015181840152602081019050620001af565b83811115620001dc576000848401525b50505050565b6000601f19601f8301169050919050565b610fee80620002036000396000f3fe608060405234801561001057600080fd5b50600436106100575760003560e01c8063687360b71461005c578063a8a5a6e91461007a578063aabb755414610098578063aea5df16146100b4578063e2a5842b146100d2575b600080fd5b6100646100ee565b6040516100719190610c22565b60405180910390f35b61008261012c565b60405161008f9190610c22565b60405180910390f35b6100b260048036038101906100ad9190610990565b610187565b005b6100bc610381565b6040516100c99190610b7e565b60405180910390f35b6100ec60048036038101906100e79190610990565b6104e6565b005b6000806000546001546101019190610d9b565b9050610125604051806060016040528060248152602001610f746024913982610724565b8091505090565b60008060055460025461013f9190610d9b565b90506101806040518060400160405280601d81526020017f43686172697a617264206861732025642068702072656d61696e696e6700000081525082610724565b8091505090565b60035460008082825461019a9190610d45565b92505081905550600354600160008282546101b59190610d9b565b92505081905550600454600560008282546101d09190610d45565b92505081905550600454600260008282546101eb9190610d9b565b92505081905550610214604051806060016040528060218152602001610f9860219139336107c0565b610236604051806060016040528060258152602001610f4f60259139336107c0565b60076040518060a001604052803373ffffffffffffffffffffffffffffffffffffffff1681526020018381526020014281526020016001548152602001600254815250908060018154018082558091505060019003906000526020600020906005020160009091909190915060008201518160000160006101000a81548173ffffffffffffffffffffffffffffffffffffffff021916908373ffffffffffffffffffffffffffffffffffffffff1602179055506020820151816001019080519060200190610305929190610885565b5060408201518160020155606082015181600301556080820151816004015550503373ffffffffffffffffffffffffffffffffffffffff167f24f01c296a1c8cb8dfd5bf3dff42d352dac8cc0c6e7483945107a0b14004c8a942836001546002546040516103769493929190610c3d565b60405180910390a250565b60606007805480602002602001604051908101604052809291908181526020016000905b828210156104dd57838290600052602060002090600502016040518060a00160405290816000820160009054906101000a900473ffffffffffffffffffffffffffffffffffffffff1673ffffffffffffffffffffffffffffffffffffffff1673ffffffffffffffffffffffffffffffffffffffff16815260200160018201805461042e90610e4d565b80601f016020809104026020016040519081016040528092919081815260200182805461045a90610e4d565b80156104a75780601f1061047c576101008083540402835291602001916104a7565b820191906000526020600020905b81548152906001019060200180831161048a57829003601f168201915b505050505081526020016002820154815260200160038201548152602001600482015481525050815260200190600101906103a5565b50505050905090565b6103e8600260008282546104fa9190610d45565b925050819055506105406040518060400160405280601181526020017f25732075736564206120706f74696f6e21000000000000000000000000000000815250336107c0565b60076040518060a001604052803373ffffffffffffffffffffffffffffffffffffffff1681526020018381526020014281526020016001548152602001600254815250908060018154018082558091505060019003906000526020600020906005020160009091909190915060008201518160000160006101000a81548173ffffffffffffffffffffffffffffffffffffffff021916908373ffffffffffffffffffffffffffffffffffffffff160217905550602082015181600101908051906020019061060f929190610885565b5060408201518160020155606082015181600301556080820151816004015550503373ffffffffffffffffffffffffffffffffffffffff167f24f01c296a1c8cb8dfd5bf3dff42d352dac8cc0c6e7483945107a0b14004c8a942836001546002546040516106809493929190610c3d565b60405180910390a250565b6107218160405160240161069f9190610ba0565b6040516020818303038152906040527f41304fac000000000000000000000000000000000000000000000000000000007bffffffffffffffffffffffffffffffffffffffffffffffffffffffff19166020820180517bffffffffffffffffffffffffffffffffffffffffffffffffffffffff838183161783525050505061085c565b50565b6107bc828260405160240161073a929190610bf2565b6040516020818303038152906040527f9710a9d0000000000000000000000000000000000000000000000000000000007bffffffffffffffffffffffffffffffffffffffffffffffffffffffff19166020820180517bffffffffffffffffffffffffffffffffffffffffffffffffffffffff838183161783525050505061085c565b5050565b61085882826040516024016107d6929190610bc2565b6040516020818303038152906040527f319af333000000000000000000000000000000000000000000000000000000007bffffffffffffffffffffffffffffffffffffffffffffffffffffffff19166020820180517bffffffffffffffffffffffffffffffffffffffffffffffffffffffff838183161783525050505061085c565b5050565b60008151905060006a636f6e736f6c652e6c6f679050602083016000808483855afa5050505050565b82805461089190610e4d565b90600052602060002090601f0160209004810192826108b357600085556108fa565b82601f106108cc57805160ff19168380011785556108fa565b828001600101855582156108fa579182015b828111156108f95782518255916020019190600101906108de565b5b509050610907919061090b565b5090565b5b8082111561092457600081600090555060010161090c565b5090565b600061093b61093684610cae565b610c89565b90508281526020810184848401111561095357600080fd5b61095e848285610e0b565b509392505050565b600082601f83011261097757600080fd5b8135610987848260208601610928565b91505092915050565b6000602082840312156109a257600080fd5b600082013567ffffffffffffffff8111156109bc57600080fd5b6109c884828501610966565b91505092915050565b60006109dd8383610aea565b905092915050565b6109ee81610dcf565b82525050565b6109fd81610dcf565b82525050565b6000610a0e82610cef565b610a188185610d12565b935083602082028501610a2a85610cdf565b8060005b85811015610a665784840389528151610a4785826109d1565b9450610a5283610d05565b925060208a01995050600181019050610a2e565b50829750879550505050505092915050565b6000610a8382610cfa565b610a8d8185610d23565b9350610a9d818560208601610e1a565b610aa681610f3d565b840191505092915050565b6000610abc82610cfa565b610ac68185610d34565b9350610ad6818560208601610e1a565b610adf81610f3d565b840191505092915050565b600060a083016000830151610b0260008601826109e5565b5060208301518482036020860152610b1a8282610a78565b9150506040830151610b2f6040860182610b60565b506060830151610b426060860182610b60565b506080830151610b556080860182610b60565b508091505092915050565b610b6981610e01565b82525050565b610b7881610e01565b82525050565b60006020820190508181036000830152610b988184610a03565b905092915050565b60006020820190508181036000830152610bba8184610ab1565b905092915050565b60006040820190508181036000830152610bdc8185610ab1565b9050610beb60208301846109f4565b9392505050565b60006040820190508181036000830152610c0c8185610ab1565b9050610c1b6020830184610b6f565b9392505050565b6000602082019050610c376000830184610b6f565b92915050565b6000608082019050610c526000830187610b6f565b8181036020830152610c648186610ab1565b9050610c736040830185610b6f565b610c806060830184610b6f565b95945050505050565b6000610c93610ca4565b9050610c9f8282610e7f565b919050565b6000604051905090565b600067ffffffffffffffff821115610cc957610cc8610f0e565b5b610cd282610f3d565b9050602081019050919050565b6000819050602082019050919050565b600081519050919050565b600081519050919050565b6000602082019050919050565b600082825260208201905092915050565b600082825260208201905092915050565b600082825260208201905092915050565b6000610d5082610e01565b9150610d5b83610e01565b9250827fffffffffffffffffffffffffffffffffffffffffffffffffffffffffffffffff03821115610d9057610d8f610eb0565b5b828201905092915050565b6000610da682610e01565b9150610db183610e01565b925082821015610dc457610dc3610eb0565b5b828203905092915050565b6000610dda82610de1565b9050919050565b600073ffffffffffffffffffffffffffffffffffffffff82169050919050565b6000819050919050565b82818337600083830152505050565b60005b83811015610e38578082015181840152602081019050610e1d565b83811115610e47576000848401525b50505050565b60006002820490506001821680610e6557607f821691505b60208210811415610e7957610e78610edf565b5b50919050565b610e8882610f3d565b810181811067ffffffffffffffff82111715610ea757610ea6610f0e565b5b80604052505050565b7f4e487b7100000000000000000000000000000000000000000000000000000000600052601160045260246000fd5b7f4e487b7100000000000000000000000000000000000000000000000000000000600052602260045260246000fd5b7f4e487b7100000000000000000000000000000000000000000000000000000000600052604160045260246000fd5b6000601f19601f830116905091905056fe2573207761732061747461636b6564206261636b20627920736861646f77204c756769612154686520536861646f77204c75676961206861732025642068702072656d61696e696e672573206861732061747461636b65642074686520736861646f77204c7567696121a26469706673582212200402789f04cf9217705d1fdacd090ffb2c7de456408b034a8b698720afc221d564736f6c634300080400337468697320676f6e6e6120626520746865206c7567696120736d61727420636f6e7472616374",
  "linkReferences": {},
  "deployedLinkReferences": {}
}